{
  "contractName": "Share4YourGroupAPP",
  "abi": [
    {
      "inputs": [],
      "payable": false,
      "stateMutability": "nonpayable",
      "type": "constructor"
    },
    {
      "anonymous": false,
      "inputs": [
        {
          "indexed": false,
          "internalType": "uint256",
          "name": "file_ID",
          "type": "uint256"
        },
        {
          "indexed": false,
          "internalType": "string",
          "name": "hash_file",
          "type": "string"
        },
        {
          "indexed": false,
          "internalType": "uint256",
          "name": "dimensione_file",
          "type": "uint256"
        },
        {
          "indexed": false,
          "internalType": "string",
          "name": "tipo_file",
          "type": "string"
        },
        {
          "indexed": false,
          "internalType": "string",
          "name": "nome_file",
          "type": "string"
        },
        {
          "indexed": false,
          "internalType": "string",
          "name": "descrizione_file",
          "type": "string"
        },
        {
          "indexed": false,
          "internalType": "uint256",
          "name": "timestamp",
          "type": "uint256"
        },
        {
          "indexed": false,
          "internalType": "address payable",
          "name": "uploader",
          "type": "address"
        }
      ],
      "name": "DocumentoCaricato",
      "type": "event"
    },
    {
      "constant": true,
      "inputs": [
        {
          "internalType": "uint256",
          "name": "",
          "type": "uint256"
        }
      ],
      "name": "files",
      "outputs": [
        {
          "internalType": "uint256",
          "name": "file_ID",
          "type": "uint256"
        },
        {
          "internalType": "string",
          "name": "hash_file",
          "type": "string"
        },
        {
          "internalType": "uint256",
          "name": "dimensione_file",
          "type": "uint256"
        },
        {
          "internalType": "string",
          "name": "tipo_file",
          "type": "string"
        },
        {
          "internalType": "string",
          "name": "nome_file",
          "type": "string"
        },
        {
          "internalType": "string",
          "name": "descrizione_file",
          "type": "string"
        },
        {
          "internalType": "uint256",
          "name": "timestamp",
          "type": "uint256"
        },
        {
          "internalType": "address payable",
          "name": "uploader",
          "type": "address"
        }
      ],
      "payable": false,
      "stateMutability": "view",
      "type": "function"
    },
    {
      "constant": true,
      "inputs": [],
      "name": "name",
      "outputs": [
        {
          "internalType": "string",
          "name": "",
          "type": "string"
        }
      ],
      "payable": false,
      "stateMutability": "view",
      "type": "function"
    },
    {
      "constant": true,
      "inputs": [],
      "name": "numero_file",
      "outputs": [
        {
          "internalType": "uint256",
          "name": "",
          "type": "uint256"
        }
      ],
      "payable": false,
      "stateMutability": "view",
      "type": "function"
    },
    {
      "constant": false,
      "inputs": [
        {
          "internalType": "string",
          "name": "hashDocumento",
          "type": "string"
        },
        {
          "internalType": "uint256",
          "name": "dimensioneDocumento",
          "type": "uint256"
        },
        {
          "internalType": "string",
          "name": "tipoDocumento",
          "type": "string"
        },
        {
          "internalType": "string",
          "name": "nomeDocumento",
          "type": "string"
        },
        {
          "internalType": "string",
          "name": "descrizioneDocumento",
          "type": "string"
        }
      ],
      "name": "uploadFile",
      "outputs": [],
      "payable": false,
      "stateMutability": "nonpayable",
      "type": "function"
    },
    {
      "constant": true,
      "inputs": [
        {
          "internalType": "string",
          "name": "hashDoc",
          "type": "string"
        }
      ],
      "name": "getByHash",
      "outputs": [
        {
          "internalType": "bool",
          "name": "",
          "type": "bool"
        }
      ],
      "payable": false,
      "stateMutability": "view",
      "type": "function"
    }
  ],
  "bytecode": "0x60806040526040518060400160405280601281526020017f536861726534596f757247726f757041505000000000000000000000000000008152506000908051906020019061004f929190610067565b50600060015534801561006157600080fd5b5061010c565b828054600181600116156101000203166002900490600052602060002090601f016020900481019282601f106100a857805160ff19168380011785556100d6565b828001600101855582156100d6579182015b828111156100d55782518255916020019190600101906100ba565b5b5090506100e391906100e7565b5090565b61010991905b808211156101055760008160009055506001016100ed565b5090565b90565b61109c806200011c6000396000f3fe608060405234801561001057600080fd5b50600436106100575760003560e01c806306fdde031461005c57806390397947146100df578063e1fd1d35146101b2578063e82d9d33146101d0578063f4c714b41461045a575b600080fd5b61006461068d565b6040518080602001828103825283818151815260200191508051906020019080838360005b838110156100a4578082015181840152602081019050610089565b50505050905090810190601f1680156100d15780820380516001836020036101000a031916815260200191505b509250505060405180910390f35b610198600480360360208110156100f557600080fd5b810190808035906020019064010000000081111561011257600080fd5b82018360208201111561012457600080fd5b8035906020019184600183028401116401000000008311171561014657600080fd5b91908080601f016020809104026020016040519081016040528093929190818152602001838380828437600081840152601f19601f82011690508083019250505050505050919291929050505061072b565b604051808215151515815260200191505060405180910390f35b6101ba610866565b6040518082815260200191505060405180910390f35b610458600480360360a08110156101e657600080fd5b810190808035906020019064010000000081111561020357600080fd5b82018360208201111561021557600080fd5b8035906020019184600183028401116401000000008311171561023757600080fd5b91908080601f016020809104026020016040519081016040528093929190818152602001838380828437600081840152601f19601f82011690508083019250505050505050919291929080359060200190929190803590602001906401000000008111156102a457600080fd5b8201836020820111156102b657600080fd5b803590602001918460018302840111640100000000831117156102d857600080fd5b91908080601f016020809104026020016040519081016040528093929190818152602001838380828437600081840152601f19601f8201169050808301925050505050505091929192908035906020019064010000000081111561033b57600080fd5b82018360208201111561034d57600080fd5b8035906020019184600183028401116401000000008311171561036f57600080fd5b91908080601f016020809104026020016040519081016040528093929190818152602001838380828437600081840152601f19601f820116905080830192505050505050509192919290803590602001906401000000008111156103d257600080fd5b8201836020820111156103e457600080fd5b8035906020019184600183028401116401000000008311171561040657600080fd5b91908080601f016020809104026020016040519081016040528093929190818152602001838380828437600081840152601f19601f82011690508083019250505050505050919291929050505061086c565b005b6104866004803603602081101561047057600080fd5b8101908080359060200190929190505050610cfa565b60405180898152602001806020018881526020018060200180602001806020018781526020018673ffffffffffffffffffffffffffffffffffffffff1673ffffffffffffffffffffffffffffffffffffffff16815260200185810385528c818151815260200191508051906020019080838360005b838110156105165780820151818401526020810190506104fb565b50505050905090810190601f1680156105435780820380516001836020036101000a031916815260200191505b5085810384528a818151815260200191508051906020019080838360005b8381101561057c578082015181840152602081019050610561565b50505050905090810190601f1680156105a95780820380516001836020036101000a031916815260200191505b50858103835289818151815260200191508051906020019080838360005b838110156105e25780820151818401526020810190506105c7565b50505050905090810190601f16801561060f5780820380516001836020036101000a031916815260200191505b50858103825288818151815260200191508051906020019080838360005b8381101561064857808201518184015260208101905061062d565b50505050905090810190601f1680156106755780820380516001836020036101000a031916815260200191505b509c5050505050505050505050505060405180910390f35b60008054600181600116156101000203166002900480601f0160208091040260200160405190810160405280929190818152602001828054600181600116156101000203166002900480156107235780601f106106f857610100808354040283529160200191610723565b820191906000526020600020905b81548152906001019060200180831161070657829003601f168201915b505050505081565b600080600090505b60015481101561085b576002600082815260200190815260200160002060010160405160200180828054600181600116156101000203166002900480156107b15780601f1061078f5761010080835404028352918201916107b1565b820191906000526020600020905b81548152906001019060200180831161079d575b505091505060405160208183030381529060405280519060200120836040516020018082805190602001908083835b6020831061080357805182526020820191506020810190506020830392506107e0565b6001836020036101000a03801982511681845116808217855250505050505090500191505060405160208183030381529060405280519060200120141561084e576001915050610861565b8080600101915050610733565b50600090505b919050565b60015481565b600015156108798661072b565b1515146108ee576040517f08c379a00000000000000000000000000000000000000000000000000000000081526004018080602001828103825260158152602001807f446f63756d656e746f206573697374656e7465212e000000000000000000000081525060200191505060405180910390fd5b60008551116108fc57600080fd5b600083511161090a57600080fd5b600081511161091857600080fd5b600082511161092657600080fd5b600073ffffffffffffffffffffffffffffffffffffffff163373ffffffffffffffffffffffffffffffffffffffff16141561096057600080fd5b6000841161096d57600080fd5b60016000815480929190600101919050555060405180610100016040528060015481526020018681526020018581526020018481526020018381526020018281526020014281526020013373ffffffffffffffffffffffffffffffffffffffff16815250600260006001548152602001908152602001600020600082015181600001556020820151816001019080519060200190610a0c929190610fc2565b50604082015181600201556060820151816003019080519060200190610a33929190610fc2565b506080820151816004019080519060200190610a50929190610fc2565b5060a0820151816005019080519060200190610a6d929190610fc2565b5060c0820151816006015560e08201518160070160006101000a81548173ffffffffffffffffffffffffffffffffffffffff021916908373ffffffffffffffffffffffffffffffffffffffff1602179055509050507f9d613e82900a8c9ae4708b10964000c4a31bcb17740fa52517e7232bfc55cb156001548686868686423360405180898152602001806020018881526020018060200180602001806020018781526020018673ffffffffffffffffffffffffffffffffffffffff1673ffffffffffffffffffffffffffffffffffffffff16815260200185810385528c818151815260200191508051906020019080838360005b83811015610b7d578082015181840152602081019050610b62565b50505050905090810190601f168015610baa5780820380516001836020036101000a031916815260200191505b5085810384528a818151815260200191508051906020019080838360005b83811015610be3578082015181840152602081019050610bc8565b50505050905090810190601f168015610c105780820380516001836020036101000a031916815260200191505b50858103835289818151815260200191508051906020019080838360005b83811015610c49578082015181840152602081019050610c2e565b50505050905090810190601f168015610c765780820380516001836020036101000a031916815260200191505b50858103825288818151815260200191508051906020019080838360005b83811015610caf578082015181840152602081019050610c94565b50505050905090810190601f168015610cdc5780820380516001836020036101000a031916815260200191505b509c5050505050505050505050505060405180910390a15050505050565b6002602052806000526040600020600091509050806000015490806001018054600181600116156101000203166002900480601f016020809104026020016040519081016040528092919081815260200182805460018160011615610100020316600290048015610dac5780601f10610d8157610100808354040283529160200191610dac565b820191906000526020600020905b815481529060010190602001808311610d8f57829003601f168201915b505050505090806002015490806003018054600181600116156101000203166002900480601f016020809104026020016040519081016040528092919081815260200182805460018160011615610100020316600290048015610e505780601f10610e2557610100808354040283529160200191610e50565b820191906000526020600020905b815481529060010190602001808311610e3357829003601f168201915b505050505090806004018054600181600116156101000203166002900480601f016020809104026020016040519081016040528092919081815260200182805460018160011615610100020316600290048015610eee5780601f10610ec357610100808354040283529160200191610eee565b820191906000526020600020905b815481529060010190602001808311610ed157829003601f168201915b505050505090806005018054600181600116156101000203166002900480601f016020809104026020016040519081016040528092919081815260200182805460018160011615610100020316600290048015610f8c5780601f10610f6157610100808354040283529160200191610f8c565b820191906000526020600020905b815481529060010190602001808311610f6f57829003601f168201915b5050505050908060060154908060070160009054906101000a900473ffffffffffffffffffffffffffffffffffffffff16905088565b828054600181600116156101000203166002900490600052602060002090601f016020900481019282601f1061100357805160ff1916838001178555611031565b82800160010185558215611031579182015b82811115611030578251825591602001919060010190611015565b5b50905061103e9190611042565b5090565b61106491905b80821115611060576000816000905550600101611048565b5090565b9056fea265627a7a7231582018651548cd95a1ebd998b6f15460ec8eaa0d9239b8bbf25d5bde632c0c660cd064736f6c63430005100032",
  "source": "pragma solidity ^0.5.0;\r\n\r\ncontract Share4YourGroupAPP {\r\n  string public name = 'Share4YourGroupAPP';\r\n  uint public numero_file = 0;\r\n  mapping(uint => Documento) public files;\r\n\r\n  struct Documento {\r\n    uint file_ID;\r\n    string hash_file;\r\n    uint dimensione_file;\r\n    string tipo_file;\r\n    string nome_file;\r\n    string descrizione_file;\r\n    uint timestamp;\r\n    address payable uploader;\r\n  }\r\n\r\n  event DocumentoCaricato(\r\n    uint file_ID,\r\n    string hash_file,\r\n    uint dimensione_file,\r\n    string tipo_file,\r\n    string nome_file, \r\n    string descrizione_file,\r\n    uint timestamp,\r\n    address payable uploader\r\n  );\r\n\r\n  constructor() public {\r\n  }\r\n\r\n  function uploadFile(string memory hashDocumento, uint dimensioneDocumento, string memory tipoDocumento, string memory nomeDocumento, string memory descrizioneDocumento) public {\r\n    \r\n    //verifico appartenenza doc, se esiste ritorna errore\r\n    require(\r\n    getByHash(hashDocumento) == false,\r\n    \"Documento esistente!.\"\r\n    );\r\n    //verifico i parametri\r\n    require(bytes(hashDocumento).length > 0);\r\n    require(bytes(tipoDocumento).length > 0);\r\n    require(bytes(descrizioneDocumento).length > 0);\r\n    require(bytes(nomeDocumento).length > 0);\r\n    // verifico che uploader address esiste\r\n    require(msg.sender!=address(0));\r\n    require(dimensioneDocumento>0);\r\n    // incrementa il numero\r\n    numero_file ++;\r\n    // aggiungi file al contratto\r\n    files[numero_file] = Documento(numero_file, hashDocumento, dimensioneDocumento, tipoDocumento, nomeDocumento, descrizioneDocumento, now, msg.sender);\r\n    // Trigger \r\n    emit DocumentoCaricato(numero_file, hashDocumento, dimensioneDocumento, tipoDocumento, nomeDocumento, descrizioneDocumento, now, msg.sender);\r\n  \r\n  }\r\n\r\n  //se documento esiste ritorna true \r\n  //funzione per notarizzazione del documento, lo stesso documento non può essere caricato più volte\r\n  function getByHash(string memory hashDoc) public view returns (bool) {\r\n      for (uint index = 0; index < numero_file; index++) {\r\n        //keccak256 per confrontare le stringhe \r\n        //keccak256 is a hashing function supported by Solidity, and abi.encodePacked() encodes values via the Application Binary Interface.\r\n        if ( keccak256(abi.encodePacked(hashDoc)) == keccak256(abi.encodePacked(files[index].hash_file))) {\r\n            return true;\r\n        } \r\n      }\r\n      return false;\r\n    \r\n    }\r\n}",
  "sourcePath": "C:/Users/alexf/Documents/GitHub/Share4YourGroupAPP-dapp-ethereum/src/contracts/Share4YourGroupAPP.sol",
  "compiler": {
    "name": "solc",
    "version": "0.5.16+commit.9c3226ce.Emscripten.clang"
  },
  "schemaVersion": "3.2.3",
  "updatedAt": "2020-12-05T14:10:11.074Z",
  "networkType": "ethereum",
  "devdoc": {
    "methods": {}
  },
  "userdoc": {
    "methods": {}
  }
}