{
  "contractName": "Share4YourGroupAPP",
  "abi": [
    {
      "inputs": [],
      "payable": false,
      "stateMutability": "nonpayable",
      "type": "constructor"
    },
    {
      "anonymous": false,
      "inputs": [
        {
          "indexed": false,
          "internalType": "uint256",
          "name": "file_ID",
          "type": "uint256"
        },
        {
          "indexed": false,
          "internalType": "string",
          "name": "hash_file",
          "type": "string"
        },
        {
          "indexed": false,
          "internalType": "uint256",
          "name": "dimensione_file",
          "type": "uint256"
        },
        {
          "indexed": false,
          "internalType": "string",
          "name": "tipo_file",
          "type": "string"
        },
        {
          "indexed": false,
          "internalType": "string",
          "name": "nome_file",
          "type": "string"
        },
        {
          "indexed": false,
          "internalType": "string",
          "name": "descrizione_file",
          "type": "string"
        },
        {
          "indexed": false,
          "internalType": "uint256",
          "name": "timestamp",
          "type": "uint256"
        },
        {
          "indexed": false,
          "internalType": "address payable",
          "name": "uploader",
          "type": "address"
        }
      ],
      "name": "DocumentoCaricato",
      "type": "event"
    },
    {
      "constant": true,
      "inputs": [
        {
          "internalType": "uint256",
          "name": "",
          "type": "uint256"
        }
      ],
      "name": "files",
      "outputs": [
        {
          "internalType": "uint256",
          "name": "file_ID",
          "type": "uint256"
        },
        {
          "internalType": "string",
          "name": "hash_file",
          "type": "string"
        },
        {
          "internalType": "uint256",
          "name": "dimensione_file",
          "type": "uint256"
        },
        {
          "internalType": "string",
          "name": "tipo_file",
          "type": "string"
        },
        {
          "internalType": "string",
          "name": "nome_file",
          "type": "string"
        },
        {
          "internalType": "string",
          "name": "descrizione_file",
          "type": "string"
        },
        {
          "internalType": "uint256",
          "name": "timestamp",
          "type": "uint256"
        },
        {
          "internalType": "address payable",
          "name": "uploader",
          "type": "address"
        }
      ],
      "payable": false,
      "stateMutability": "view",
      "type": "function"
    },
    {
      "constant": true,
      "inputs": [],
      "name": "name",
      "outputs": [
        {
          "internalType": "string",
          "name": "",
          "type": "string"
        }
      ],
      "payable": false,
      "stateMutability": "view",
      "type": "function"
    },
    {
      "constant": true,
      "inputs": [],
      "name": "numero_file",
      "outputs": [
        {
          "internalType": "uint256",
          "name": "",
          "type": "uint256"
        }
      ],
      "payable": false,
      "stateMutability": "view",
      "type": "function"
    },
    {
      "constant": false,
      "inputs": [
        {
          "internalType": "string",
          "name": "hashDocumento",
          "type": "string"
        },
        {
          "internalType": "uint256",
          "name": "dimensioneDocumento",
          "type": "uint256"
        },
        {
          "internalType": "string",
          "name": "tipoDocumento",
          "type": "string"
        },
        {
          "internalType": "string",
          "name": "nomeDocumento",
          "type": "string"
        },
        {
          "internalType": "string",
          "name": "descrizioneDocumento",
          "type": "string"
        }
      ],
      "name": "uploadFile",
      "outputs": [],
      "payable": false,
      "stateMutability": "nonpayable",
      "type": "function"
    }
  ],
  "bytecode": "0x60806040526040518060400160405280601281526020017f536861726534596f757247726f757041505000000000000000000000000000008152506000908051906020019061004f929190610067565b50600060015534801561006157600080fd5b5061010c565b828054600181600116156101000203166002900490600052602060002090601f016020900481019282601f106100a857805160ff19168380011785556100d6565b828001600101855582156100d6579182015b828111156100d55782518255916020019190600101906100ba565b5b5090506100e391906100e7565b5090565b61010991905b808211156101055760008160009055506001016100ed565b5090565b90565b610e018061011b6000396000f3fe608060405234801561001057600080fd5b506004361061004c5760003560e01c806306fdde0314610051578063e1fd1d35146100d4578063e82d9d33146100f2578063f4c714b41461037c575b600080fd5b6100596105af565b6040518080602001828103825283818151815260200191508051906020019080838360005b8381101561009957808201518184015260208101905061007e565b50505050905090810190601f1680156100c65780820380516001836020036101000a031916815260200191505b509250505060405180910390f35b6100dc61064d565b6040518082815260200191505060405180910390f35b61037a600480360360a081101561010857600080fd5b810190808035906020019064010000000081111561012557600080fd5b82018360208201111561013757600080fd5b8035906020019184600183028401116401000000008311171561015957600080fd5b91908080601f016020809104026020016040519081016040528093929190818152602001838380828437600081840152601f19601f82011690508083019250505050505050919291929080359060200190929190803590602001906401000000008111156101c657600080fd5b8201836020820111156101d857600080fd5b803590602001918460018302840111640100000000831117156101fa57600080fd5b91908080601f016020809104026020016040519081016040528093929190818152602001838380828437600081840152601f19601f8201169050808301925050505050505091929192908035906020019064010000000081111561025d57600080fd5b82018360208201111561026f57600080fd5b8035906020019184600183028401116401000000008311171561029157600080fd5b91908080601f016020809104026020016040519081016040528093929190818152602001838380828437600081840152601f19601f820116905080830192505050505050509192919290803590602001906401000000008111156102f457600080fd5b82018360208201111561030657600080fd5b8035906020019184600183028401116401000000008311171561032857600080fd5b91908080601f016020809104026020016040519081016040528093929190818152602001838380828437600081840152601f19601f820116905080830192505050505050509192919290505050610653565b005b6103a86004803603602081101561039257600080fd5b8101908080359060200190929190505050610a5f565b60405180898152602001806020018881526020018060200180602001806020018781526020018673ffffffffffffffffffffffffffffffffffffffff1673ffffffffffffffffffffffffffffffffffffffff16815260200185810385528c818151815260200191508051906020019080838360005b8381101561043857808201518184015260208101905061041d565b50505050905090810190601f1680156104655780820380516001836020036101000a031916815260200191505b5085810384528a818151815260200191508051906020019080838360005b8381101561049e578082015181840152602081019050610483565b50505050905090810190601f1680156104cb5780820380516001836020036101000a031916815260200191505b50858103835289818151815260200191508051906020019080838360005b838110156105045780820151818401526020810190506104e9565b50505050905090810190601f1680156105315780820380516001836020036101000a031916815260200191505b50858103825288818151815260200191508051906020019080838360005b8381101561056a57808201518184015260208101905061054f565b50505050905090810190601f1680156105975780820380516001836020036101000a031916815260200191505b509c5050505050505050505050505060405180910390f35b60008054600181600116156101000203166002900480601f0160208091040260200160405190810160405280929190818152602001828054600181600116156101000203166002900480156106455780601f1061061a57610100808354040283529160200191610645565b820191906000526020600020905b81548152906001019060200180831161062857829003601f168201915b505050505081565b60015481565b600085511161066157600080fd5b600083511161066f57600080fd5b600081511161067d57600080fd5b600082511161068b57600080fd5b600073ffffffffffffffffffffffffffffffffffffffff163373ffffffffffffffffffffffffffffffffffffffff1614156106c557600080fd5b600084116106d257600080fd5b60016000815480929190600101919050555060405180610100016040528060015481526020018681526020018581526020018481526020018381526020018281526020014281526020013373ffffffffffffffffffffffffffffffffffffffff16815250600260006001548152602001908152602001600020600082015181600001556020820151816001019080519060200190610771929190610d27565b50604082015181600201556060820151816003019080519060200190610798929190610d27565b5060808201518160040190805190602001906107b5929190610d27565b5060a08201518160050190805190602001906107d2929190610d27565b5060c0820151816006015560e08201518160070160006101000a81548173ffffffffffffffffffffffffffffffffffffffff021916908373ffffffffffffffffffffffffffffffffffffffff1602179055509050507f9d613e82900a8c9ae4708b10964000c4a31bcb17740fa52517e7232bfc55cb156001548686868686423360405180898152602001806020018881526020018060200180602001806020018781526020018673ffffffffffffffffffffffffffffffffffffffff1673ffffffffffffffffffffffffffffffffffffffff16815260200185810385528c818151815260200191508051906020019080838360005b838110156108e25780820151818401526020810190506108c7565b50505050905090810190601f16801561090f5780820380516001836020036101000a031916815260200191505b5085810384528a818151815260200191508051906020019080838360005b8381101561094857808201518184015260208101905061092d565b50505050905090810190601f1680156109755780820380516001836020036101000a031916815260200191505b50858103835289818151815260200191508051906020019080838360005b838110156109ae578082015181840152602081019050610993565b50505050905090810190601f1680156109db5780820380516001836020036101000a031916815260200191505b50858103825288818151815260200191508051906020019080838360005b83811015610a145780820151818401526020810190506109f9565b50505050905090810190601f168015610a415780820380516001836020036101000a031916815260200191505b509c5050505050505050505050505060405180910390a15050505050565b6002602052806000526040600020600091509050806000015490806001018054600181600116156101000203166002900480601f016020809104026020016040519081016040528092919081815260200182805460018160011615610100020316600290048015610b115780601f10610ae657610100808354040283529160200191610b11565b820191906000526020600020905b815481529060010190602001808311610af457829003601f168201915b505050505090806002015490806003018054600181600116156101000203166002900480601f016020809104026020016040519081016040528092919081815260200182805460018160011615610100020316600290048015610bb55780601f10610b8a57610100808354040283529160200191610bb5565b820191906000526020600020905b815481529060010190602001808311610b9857829003601f168201915b505050505090806004018054600181600116156101000203166002900480601f016020809104026020016040519081016040528092919081815260200182805460018160011615610100020316600290048015610c535780601f10610c2857610100808354040283529160200191610c53565b820191906000526020600020905b815481529060010190602001808311610c3657829003601f168201915b505050505090806005018054600181600116156101000203166002900480601f016020809104026020016040519081016040528092919081815260200182805460018160011615610100020316600290048015610cf15780601f10610cc657610100808354040283529160200191610cf1565b820191906000526020600020905b815481529060010190602001808311610cd457829003601f168201915b5050505050908060060154908060070160009054906101000a900473ffffffffffffffffffffffffffffffffffffffff16905088565b828054600181600116156101000203166002900490600052602060002090601f016020900481019282601f10610d6857805160ff1916838001178555610d96565b82800160010185558215610d96579182015b82811115610d95578251825591602001919060010190610d7a565b5b509050610da39190610da7565b5090565b610dc991905b80821115610dc5576000816000905550600101610dad565b5090565b9056fea265627a7a72315820e685d3495c9d559edd04baee9f4540a9359ae5477d0a5f5fad088cccd8a73d6964736f6c63430005100032",
  "source": "pragma solidity ^0.5.0;\n\ncontract Share4YourGroupAPP {\n  string public name = 'Share4YourGroupAPP';\n  uint public numero_file = 0;\n  mapping(uint => Documento) public files;\n\n  struct Documento {\n    uint file_ID;\n    string hash_file;\n    uint dimensione_file;\n    string tipo_file;\n    string nome_file;\n    string descrizione_file;\n    uint timestamp;\n    address payable uploader;\n  }\n\n  event DocumentoCaricato(\n    uint file_ID,\n    string hash_file,\n    uint dimensione_file,\n    string tipo_file,\n    string nome_file, \n    string descrizione_file,\n    uint timestamp,\n    address payable uploader\n  );\n\n  constructor() public {\n  }\n\n  function uploadFile(string memory hashDocumento, uint dimensioneDocumento, string memory tipoDocumento, string memory nomeDocumento, string memory descrizioneDocumento) public {\n    \n    //verifico i parametri\n\n\n    require(bytes(hashDocumento).length > 0);\n    require(bytes(tipoDocumento).length > 0);\n    require(bytes(descrizioneDocumento).length > 0);\n    require(bytes(nomeDocumento).length > 0);\n    // verifico che uploader address esiste\n    require(msg.sender!=address(0));\n    require(dimensioneDocumento>0);\n\n   \n\n    // incrementa il numero\n    numero_file ++;\n\n    // aggiungi file al contratto\n    files[numero_file] = Documento(numero_file, hashDocumento, dimensioneDocumento, tipoDocumento, nomeDocumento, descrizioneDocumento, now, msg.sender);\n    // Trigger \n    emit DocumentoCaricato(numero_file, hashDocumento, dimensioneDocumento, tipoDocumento, nomeDocumento, descrizioneDocumento, now, msg.sender);\n  }\n}",
  "sourcePath": "C:/Users/alexf/Desktop/ok/Prog_Blockchain/src/contracts/Share4YourGroupAPP.sol",
  "compiler": {
    "name": "solc",
    "version": "0.5.16+commit.9c3226ce.Emscripten.clang"
  },
  "schemaVersion": "3.2.3",
  "updatedAt": "2020-12-03T23:46:26.653Z",
  "networkType": "ethereum",
  "devdoc": {
    "methods": {}
  },
  "userdoc": {
    "methods": {}
  }
}